{
  "contractName": "Category",
  "abi": [
    {
      "constant": true,
      "inputs": [],
      "name": "Name",
      "outputs": [
        {
          "name": "",
          "type": "string"
        }
      ],
      "payable": false,
      "stateMutability": "view",
      "type": "function"
    },
    {
      "constant": true,
      "inputs": [
        {
          "name": "",
          "type": "uint256"
        }
      ],
      "name": "ConsentData",
      "outputs": [
        {
          "name": "",
          "type": "uint256"
        }
      ],
      "payable": false,
      "stateMutability": "view",
      "type": "function"
    },
    {
      "inputs": [
        {
          "name": "name",
          "type": "string"
        }
      ],
      "payable": false,
      "stateMutability": "nonpayable",
      "type": "constructor"
    },
    {
      "constant": false,
      "inputs": [
        {
          "name": "name",
          "type": "string"
        }
      ],
      "name": "SetCategoryName",
      "outputs": [],
      "payable": false,
      "stateMutability": "nonpayable",
      "type": "function"
    },
    {
      "constant": true,
      "inputs": [
        {
          "name": "i",
          "type": "uint256"
        }
      ],
      "name": "GetConsentData",
      "outputs": [
        {
          "name": "",
          "type": "uint256"
        }
      ],
      "payable": false,
      "stateMutability": "view",
      "type": "function"
    },
    {
      "constant": true,
      "inputs": [],
      "name": "GetConsentDataCount",
      "outputs": [
        {
          "name": "",
          "type": "uint256"
        }
      ],
      "payable": false,
      "stateMutability": "view",
      "type": "function"
    },
    {
      "constant": false,
      "inputs": [
        {
          "name": "consentData",
          "type": "uint256"
        }
      ],
      "name": "AddConsentData",
      "outputs": [],
      "payable": false,
      "stateMutability": "nonpayable",
      "type": "function"
    },
    {
      "constant": true,
      "inputs": [],
      "name": "GetAllConsentData",
      "outputs": [
        {
          "name": "",
          "type": "uint256[]"
        }
      ],
      "payable": false,
      "stateMutability": "view",
      "type": "function"
    }
  ],
  "bytecode": "0x608060405234801561001057600080fd5b506040516106c23803806106c2833981018060405281019080805182019291905050508060009080519060200190610049929190610097565b50600060405190808252806020026020018201604052801561007a5781602001602082028038833980820191505090505b5060019080519060200190610090929190610117565b5050610189565b828054600181600116156101000203166002900490600052602060002090601f016020900481019282601f106100d857805160ff1916838001178555610106565b82800160010185558215610106579182015b828111156101055782518255916020019190600101906100ea565b5b5090506101139190610164565b5090565b828054828255906000526020600020908101928215610153579160200282015b82811115610152578251825591602001919060010190610137565b5b5090506101609190610164565b5090565b61018691905b8082111561018257600081600090555060010161016a565b5090565b90565b61052a806101986000396000f300608060405260043610610083576000357c0100000000000000000000000000000000000000000000000000000000900463ffffffff1680630fa803e814610088578063488a6705146100f15780637028b3b91461011e5780638052474d1461014957806392243743146101d9578063b6f7600d1461021a578063c70a924614610286575b600080fd5b34801561009457600080fd5b506100ef600480360381019080803590602001908201803590602001908080601f01602080910402602001604051908101604052809392919081815260200183838082843782019150505050505091929192905050506102c7565b005b3480156100fd57600080fd5b5061011c600480360381019080803590602001909291905050506102e1565b005b34801561012a57600080fd5b50610133610310565b6040518082815260200191505060405180910390f35b34801561015557600080fd5b5061015e61031d565b6040518080602001828103825283818151815260200191508051906020019080838360005b8381101561019e578082015181840152602081019050610183565b50505050905090810190601f1680156101cb5780820380516001836020036101000a031916815260200191505b509250505060405180910390f35b3480156101e557600080fd5b50610204600480360381019080803590602001909291905050506103bb565b6040518082815260200191505060405180910390f35b34801561022657600080fd5b5061022f6103de565b6040518080602001828103825283818151815260200191508051906020019060200280838360005b83811015610272578082015181840152602081019050610257565b505050509050019250505060405180910390f35b34801561029257600080fd5b506102b160048036038101908080359060200190929190505050610436565b6040518082815260200191505060405180910390f35b80600090805190602001906102dd929190610459565b5050565b600181908060018154018082558091505090600182039060005260206000200160009091929091909150555050565b6000600180549050905090565b60008054600181600116156101000203166002900480601f0160208091040260200160405190810160405280929190818152602001828054600181600116156101000203166002900480156103b35780601f10610388576101008083540402835291602001916103b3565b820191906000526020600020905b81548152906001019060200180831161039657829003601f168201915b505050505081565b6001818154811015156103ca57fe5b906000526020600020016000915090505481565b6060600180548060200260200160405190810160405280929190818152602001828054801561042c57602002820191906000526020600020905b815481526020019060010190808311610418575b5050505050905090565b600060018281548110151561044757fe5b90600052602060002001549050919050565b828054600181600116156101000203166002900490600052602060002090601f016020900481019282601f1061049a57805160ff19168380011785556104c8565b828001600101855582156104c8579182015b828111156104c75782518255916020019190600101906104ac565b5b5090506104d591906104d9565b5090565b6104fb91905b808211156104f75760008160009055506001016104df565b5090565b905600a165627a7a7230582079ced94d3f04ff3a992c56ddba5283fe078890b5c9d8c48b4efa8efaf4d7206a0029",
  "source": "pragma solidity ^0.4.4;\r\n\r\ncontract Category {\r\n\r\n  string public Name;\r\n  \r\n  constructor (string name) public{\r\n    Name = name;\r\n    ConsentData = new uint256[](0);\r\n  }\r\n  \r\n  function SetCategoryName(string name) public { Name = name; }\r\n\r\n  // TODO use future ConsentData type when that's done\r\n  uint256[] public ConsentData;\r\n\r\n  function GetConsentData(uint i) constant public returns(uint256)  { return ConsentData[i]; }\r\n  function GetConsentDataCount() constant public returns(uint256) { return ConsentData.length; }\r\n  function AddConsentData(uint256 consentData) public { ConsentData.push(consentData); }\r\n  function GetAllConsentData() constant public returns(uint256[]) { return ConsentData; }\r\n\r\n}",
  "sourcePath": "E:\\MUN courses study materials\\Masters Project\\ConsentDirectivesAudit\\contracts\\Category.sol",
  "compiler": {
    "name": "solc",
    "version": "0.4.24+commit.e67f0147.Emscripten.clang"
  },
  "schemaVersion": "2.0.0",
  "updatedAt": "2018-06-22T00:14:27.381Z"
}