{
  "contractName": "CategoryCatalog",
  "abi": [
    {
      "constant": true,
      "inputs": [],
      "name": "Owner",
      "outputs": [
        {
          "name": "",
          "type": "address"
        }
      ],
      "payable": false,
      "stateMutability": "view",
      "type": "function"
    },
    {
      "inputs": [],
      "payable": false,
      "stateMutability": "nonpayable",
      "type": "constructor"
    },
    {
      "constant": false,
      "inputs": [
        {
          "name": "category",
          "type": "address"
        }
      ],
      "name": "Add",
      "outputs": [],
      "payable": false,
      "stateMutability": "nonpayable",
      "type": "function"
    },
    {
      "constant": false,
      "inputs": [
        {
          "name": "i",
          "type": "uint256"
        }
      ],
      "name": "Remove",
      "outputs": [],
      "payable": false,
      "stateMutability": "nonpayable",
      "type": "function"
    },
    {
      "constant": false,
      "inputs": [],
      "name": "RemoveAll",
      "outputs": [],
      "payable": false,
      "stateMutability": "nonpayable",
      "type": "function"
    },
    {
      "constant": false,
      "inputs": [
        {
          "name": "i",
          "type": "uint256"
        },
        {
          "name": "category",
          "type": "address"
        }
      ],
      "name": "Update",
      "outputs": [],
      "payable": false,
      "stateMutability": "nonpayable",
      "type": "function"
    },
    {
      "constant": true,
      "inputs": [],
      "name": "GetCount",
      "outputs": [
        {
          "name": "",
          "type": "uint256"
        }
      ],
      "payable": false,
      "stateMutability": "view",
      "type": "function"
    },
    {
      "constant": true,
      "inputs": [],
      "name": "GetAll",
      "outputs": [
        {
          "name": "",
          "type": "address[]"
        }
      ],
      "payable": false,
      "stateMutability": "view",
      "type": "function"
    }
  ],
  "bytecode": "0x608060405234801561001057600080fd5b50336000806101000a81548173ffffffffffffffffffffffffffffffffffffffff021916908373ffffffffffffffffffffffffffffffffffffffff16021790555060006040519080825280602002602001820160405280156100815781602001602082028038833980820191505090505b506001908051906020019061009792919061009d565b5061016a565b828054828255906000526020600020908101928215610116579160200282015b828111156101155782518260006101000a81548173ffffffffffffffffffffffffffffffffffffffff021916908373ffffffffffffffffffffffffffffffffffffffff160217905550916020019190600101906100bd565b5b5090506101239190610127565b5090565b61016791905b8082111561016357600081816101000a81549073ffffffffffffffffffffffffffffffffffffffff02191690555060010161012d565b5090565b90565b6106cc806101796000396000f300608060405260043610610083576000357c0100000000000000000000000000000000000000000000000000000000900463ffffffff1680630ab93971146100885780632e943002146100b3578063476e4aa41461010057806387dc5eec1461012d578063a5440fa014610170578063b4a99a4e146101dc578063c378f1af14610233575b600080fd5b34801561009457600080fd5b5061009d61024a565b6040518082815260200191505060405180910390f35b3480156100bf57600080fd5b506100fe60048036038101908080359060200190929190803573ffffffffffffffffffffffffffffffffffffffff169060200190929190505050610257565b005b34801561010c57600080fd5b5061012b60048036038101908080359060200190929190505050610312565b005b34801561013957600080fd5b5061016e600480360381019080803573ffffffffffffffffffffffffffffffffffffffff1690602001909291905050506103b0565b005b34801561017c57600080fd5b50610185610478565b6040518080602001828103825283818151815260200191508051906020019060200280838360005b838110156101c85780820151818401526020810190506101ad565b505050509050019250505060405180910390f35b3480156101e857600080fd5b506101f1610506565b604051808273ffffffffffffffffffffffffffffffffffffffff1673ffffffffffffffffffffffffffffffffffffffff16815260200191505060405180910390f35b34801561023f57600080fd5b5061024861052b565b005b6000600180549050905090565b6000809054906101000a900473ffffffffffffffffffffffffffffffffffffffff1673ffffffffffffffffffffffffffffffffffffffff163373ffffffffffffffffffffffffffffffffffffffff16141561030957806001838154811015156102bc57fe5b9060005260206000200160006101000a81548173ffffffffffffffffffffffffffffffffffffffff021916908373ffffffffffffffffffffffffffffffffffffffff16021790555061030e565b600080fd5b5050565b6000809054906101000a900473ffffffffffffffffffffffffffffffffffffffff1673ffffffffffffffffffffffffffffffffffffffff163373ffffffffffffffffffffffffffffffffffffffff1614156103a85760018181548110151561037657fe5b9060005260206000200160006101000a81549073ffffffffffffffffffffffffffffffffffffffff02191690556103ad565b600080fd5b50565b6000809054906101000a900473ffffffffffffffffffffffffffffffffffffffff1673ffffffffffffffffffffffffffffffffffffffff163373ffffffffffffffffffffffffffffffffffffffff1614156104705760018190806001815401808255809150509060018203906000526020600020016000909192909190916101000a81548173ffffffffffffffffffffffffffffffffffffffff021916908373ffffffffffffffffffffffffffffffffffffffff16021790555050610475565b600080fd5b50565b606060018054806020026020016040519081016040528092919081815260200182805480156104fc57602002820191906000526020600020905b8160009054906101000a900473ffffffffffffffffffffffffffffffffffffffff1673ffffffffffffffffffffffffffffffffffffffff16815260200190600101908083116104b2575b5050505050905090565b6000809054906101000a900473ffffffffffffffffffffffffffffffffffffffff1681565b6000809054906101000a900473ffffffffffffffffffffffffffffffffffffffff1673ffffffffffffffffffffffffffffffffffffffff163373ffffffffffffffffffffffffffffffffffffffff1614156105cc5760006040519080825280602002602001820160405280156105b05781602001602082028038833980820191505090505b50600190805190602001906105c69291906105d3565b506105d1565b600080fd5b565b82805482825590600052602060002090810192821561064c579160200282015b8281111561064b5782518260006101000a81548173ffffffffffffffffffffffffffffffffffffffff021916908373ffffffffffffffffffffffffffffffffffffffff160217905550916020019190600101906105f3565b5b509050610659919061065d565b5090565b61069d91905b8082111561069957600081816101000a81549073ffffffffffffffffffffffffffffffffffffffff021916905550600101610663565b5090565b905600a165627a7a7230582045e69f187989b81b4c5d2fe940977986daba718d9d8be473173717efa6b901b00029",
  "source": "pragma solidity ^0.4.4;\r\n\r\nimport \"./Category.sol\";\r\n\r\ncontract CategoryCatalog {\r\n  \r\n  modifier OwnerOnly {\r\n    if (msg.sender == Owner) {\r\n      _;\r\n    } else {\r\n      revert();\r\n    }\r\n  }\r\n\r\n  address public Owner;\r\n  Category[] Categories;\r\n\r\n  constructor () public {\r\n    Owner = msg.sender;\r\n    Categories = new Category[](0);\r\n  }\r\n\r\n  function Add(Category category) OwnerOnly {\r\n    Categories.push(category);\r\n  }\r\n\r\n  function Remove(uint i) OwnerOnly {\r\n    delete Categories[i];\r\n  }\r\n\r\n  function RemoveAll() OwnerOnly {\r\n    Categories = new Category[](0);\r\n  }\r\n\r\n  function Update(uint i, Category category) OwnerOnly {\r\n    Categories[i] = category;\r\n  }\r\n\r\n  function GetCount() constant returns(uint) {\r\n    return Categories.length;\r\n  }\r\n\r\n  function GetAll() constant returns(Category[]) {\r\n    return Categories;\r\n  }\r\n\r\n}\r\n\r\n\r\n// These enums are for descriptive reasons only and do not\r\n// represent the actual values to be used in the uint32 member\r\n// variables seen below since they are used as bitfields.\r\n// enum DirectiveType { Consent, Delegate /* Delegate authority to consent on his/her behalf */ } // Not used ATM\r\n// enum RecordTypeValues { Any, Specific, XRay, LabReports, Prescription }\r\n// enum AccessTypeValues { Any, View, Modify, Order, Consult, AddNote, Diagnosis }\r\n// enum WhyValues { Any, PrimaryCare, Diagnosis, Treatment, SpecificProcedures, Emergency, RecordCorrection, CaseManagement }\r\n\r\n/*\r\nuint32 public RecordType; // The record type\r\nfunction SetRecordType(uint32 recordType) { RecordType = recordType; }\r\n\r\naddress public Record; // The record when RecordType is Specific. Null otherwise.\r\nfunction SetRecord(address record) { Record = record; }\r\n\r\nuint32 public AccessType; // The access type\r\nfunction SetAccessType(uint32 accessType) { AccessType = accessType; }\r\n\r\nuint32 public Why; // The why\r\nfunction SetWhy(uint32 why) { Why = why; }\r\n\r\naddress[] public Origin; // Eastern Health, Hospital Specific, Clinic Specific... Empty array represents any\r\nfunction AddOrigin(address origin) { Origin.push(origin); }\r\n*/\r\n\r\n\r\n",
  "sourcePath": "E:\\MUN courses study materials\\Masters Project\\ConsentDirectivesAudit\\contracts\\CategoryCatalog.sol",
  "compiler": {
    "name": "solc",
    "version": "0.4.24+commit.e67f0147.Emscripten.clang"
  },
  "schemaVersion": "2.0.0",
  "updatedAt": "2018-06-22T00:14:27.374Z"
}