{
  "contractName": "ConsentDirective",
  "abi": [
    {
      "constant": true,
      "inputs": [],
      "name": "Who",
      "outputs": [
        {
          "name": "",
          "type": "address"
        }
      ],
      "payable": false,
      "stateMutability": "view",
      "type": "function"
    },
    {
      "constant": true,
      "inputs": [],
      "name": "What",
      "outputs": [
        {
          "name": "",
          "type": "uint256"
        }
      ],
      "payable": false,
      "stateMutability": "view",
      "type": "function"
    },
    {
      "constant": true,
      "inputs": [],
      "name": "Record",
      "outputs": [
        {
          "name": "",
          "type": "address"
        }
      ],
      "payable": false,
      "stateMutability": "view",
      "type": "function"
    },
    {
      "inputs": [
        {
          "name": "who",
          "type": "address"
        },
        {
          "name": "what",
          "type": "uint256"
        }
      ],
      "payable": false,
      "stateMutability": "nonpayable",
      "type": "constructor"
    },
    {
      "constant": false,
      "inputs": [
        {
          "name": "who",
          "type": "address"
        }
      ],
      "name": "SetWho",
      "outputs": [],
      "payable": false,
      "stateMutability": "nonpayable",
      "type": "function"
    },
    {
      "constant": true,
      "inputs": [],
      "name": "GetTheWho",
      "outputs": [
        {
          "name": "",
          "type": "address"
        }
      ],
      "payable": false,
      "stateMutability": "view",
      "type": "function"
    },
    {
      "constant": false,
      "inputs": [
        {
          "name": "what",
          "type": "uint256"
        }
      ],
      "name": "SetWhat",
      "outputs": [],
      "payable": false,
      "stateMutability": "nonpayable",
      "type": "function"
    },
    {
      "constant": false,
      "inputs": [
        {
          "name": "record",
          "type": "address"
        }
      ],
      "name": "SetRecord",
      "outputs": [],
      "payable": false,
      "stateMutability": "nonpayable",
      "type": "function"
    },
    {
      "constant": true,
      "inputs": [],
      "name": "HasDelegateAuthority",
      "outputs": [
        {
          "name": "",
          "type": "bool"
        }
      ],
      "payable": false,
      "stateMutability": "view",
      "type": "function"
    }
  ],
  "bytecode": "0x608060405234801561001057600080fd5b506040516040806104c28339810180604052810190808051906020019092919080519060200190929190505050816000806101000a81548173ffffffffffffffffffffffffffffffffffffffff021916908373ffffffffffffffffffffffffffffffffffffffff160217905550806001819055506000600260006101000a81548173ffffffffffffffffffffffffffffffffffffffff021916908373ffffffffffffffffffffffffffffffffffffffff16021790555050506103eb806100d76000396000f30060806040526004361061008e576000357c0100000000000000000000000000000000000000000000000000000000900463ffffffff168063183d255e1461009357806329638eee146100c057806339ce3c1a14610117578063739d33071461016e578063750e68f6146101b1578063ab6f78f0146101dc578063c2be10dd1461021f578063eb1f9c7814610276575b600080fd5b34801561009f57600080fd5b506100be600480360381019080803590602001909291905050506102a5565b005b3480156100cc57600080fd5b506100d56102af565b604051808273ffffffffffffffffffffffffffffffffffffffff1673ffffffffffffffffffffffffffffffffffffffff16815260200191505060405180910390f35b34801561012357600080fd5b5061012c6102d8565b604051808273ffffffffffffffffffffffffffffffffffffffff1673ffffffffffffffffffffffffffffffffffffffff16815260200191505060405180910390f35b34801561017a57600080fd5b506101af600480360381019080803573ffffffffffffffffffffffffffffffffffffffff1690602001909291905050506102fd565b005b3480156101bd57600080fd5b506101c6610340565b6040518082815260200191505060405180910390f35b3480156101e857600080fd5b5061021d600480360381019080803573ffffffffffffffffffffffffffffffffffffffff169060200190929190505050610346565b005b34801561022b57600080fd5b5061023461038a565b604051808273ffffffffffffffffffffffffffffffffffffffff1673ffffffffffffffffffffffffffffffffffffffff16815260200191505060405180910390f35b34801561028257600080fd5b5061028b6103b0565b604051808215151515815260200191505060405180910390f35b8060018190555050565b60008060009054906101000a900473ffffffffffffffffffffffffffffffffffffffff16905090565b6000809054906101000a900473ffffffffffffffffffffffffffffffffffffffff1681565b806000806101000a81548173ffffffffffffffffffffffffffffffffffffffff021916908373ffffffffffffffffffffffffffffffffffffffff16021790555050565b60015481565b80600260006101000a81548173ffffffffffffffffffffffffffffffffffffffff021916908373ffffffffffffffffffffffffffffffffffffffff16021790555050565b600260009054906101000a900473ffffffffffffffffffffffffffffffffffffffff1681565b600060018060015416149050905600a165627a7a723058207d3e013350b4884351886e0ba28027559e95d252929bc7008d0813c986dedfed0029",
  "source": "pragma solidity ^0.4.4;\r\n\r\ncontract ConsentDirective {\r\n\r\n  // To whom the Patient is giving consent\r\n  address public Who; \r\n  function SetWho(address who) { Who = who; }\r\n  function GetTheWho() constant returns (address) { return Who; }\r\n\r\n  // The semantics of the What are specified by the system administrator\r\n  // All bits except the four least significant bits are of general purpose\r\n  //\r\n  // Four LSBs:\r\n  // Bit 0: authority to consent on the patient's behalf\r\n  // Bit 1: specific record -- this instance represents the consent directives of a specific medical record\r\n  // Bit 2: reserved\r\n  // Bit 3: reserved\r\n  //\r\n  // TODO refactor uint256 (consent data) to its own type (ConsentData contract)\r\n  uint256 public What;\r\n  function SetWhat(uint256 what) { What = what; }\r\n\r\n  // Specific record that this instance represents\r\n  // Null when non-specific\r\n  address public Record;\r\n  function SetRecord(address record) { Record = record; }\r\n\r\n  // TODO add expiry date\r\n\r\n  constructor (address who, uint256 what) public {\r\n    Who = who;\r\n    What = what;\r\n    Record = address(0);\r\n  }\r\n\r\n  function HasDelegateAuthority() constant returns(bool) {\r\n    return (What & 0x1 == 0x1);\r\n  }\r\n}\r\n",
  "sourcePath": "C:\\Users\\Mahesh\\Projects\\ConsentDirectivesAudit\\contracts\\ConsentDirective.sol",
  "compiler": {
    "name": "solc",
    "version": "0.4.23+commit.124ca40d.Emscripten.clang"
  },
  "schemaVersion": "2.0.0",
  "updatedAt": "2018-06-13T10:14:46.428Z"
}