{
  "contractName": "PatientFactory",
  "abi": [
    {
      "inputs": [],
      "payable": false,
      "stateMutability": "nonpayable",
      "type": "constructor"
    },
    {
      "constant": false,
      "inputs": [],
      "name": "MakePatient",
      "outputs": [],
      "payable": false,
      "stateMutability": "nonpayable",
      "type": "function"
    },
    {
      "constant": false,
      "inputs": [],
      "name": "DeletePatient",
      "outputs": [],
      "payable": false,
      "stateMutability": "nonpayable",
      "type": "function"
    },
    {
      "constant": true,
      "inputs": [],
      "name": "GetPatient",
      "outputs": [
        {
          "name": "",
          "type": "address"
        }
      ],
      "payable": false,
      "stateMutability": "view",
      "type": "function"
    },
    {
      "constant": true,
      "inputs": [
        {
          "name": "who",
          "type": "address"
        }
      ],
      "name": "IsPatient",
      "outputs": [
        {
          "name": "",
          "type": "bool"
        }
      ],
      "payable": false,
      "stateMutability": "view",
      "type": "function"
    },
    {
      "constant": true,
      "inputs": [
        {
          "name": "who",
          "type": "address"
        }
      ],
      "name": "GetPatientFromAddress",
      "outputs": [
        {
          "name": "",
          "type": "address"
        }
      ],
      "payable": false,
      "stateMutability": "view",
      "type": "function"
    },
    {
      "constant": true,
      "inputs": [],
      "name": "GetPatientList",
      "outputs": [
        {
          "name": "",
          "type": "address[]"
        }
      ],
      "payable": false,
      "stateMutability": "view",
      "type": "function"
    }
  ],
  "bytecode": "0x608060405234801561001057600080fd5b50611d4e806100206000396000f300608060405260043610610078576000357c0100000000000000000000000000000000000000000000000000000000900463ffffffff1680631af88bc11461007d57806355fcdfb314610100578063752b016d1461016c578063cc10d53d14610183578063efbe3894146101de578063ff2311a4146101f5575b600080fd5b34801561008957600080fd5b506100be600480360381019080803573ffffffffffffffffffffffffffffffffffffffff16906020019092919050505061024c565b604051808273ffffffffffffffffffffffffffffffffffffffff1673ffffffffffffffffffffffffffffffffffffffff16815260200191505060405180910390f35b34801561010c57600080fd5b506101156102b4565b6040518080602001828103825283818151815260200191508051906020019060200280838360005b8381101561015857808201518184015260208101905061013d565b505050509050019250505060405180910390f35b34801561017857600080fd5b50610181610342565b005b34801561018f57600080fd5b506101c4600480360381019080803573ffffffffffffffffffffffffffffffffffffffff1690602001909291905050506103a5565b604051808215151515815260200191505060405180910390f35b3480156101ea57600080fd5b506101f361043c565b005b34801561020157600080fd5b5061020a6105fa565b604051808273ffffffffffffffffffffffffffffffffffffffff1673ffffffffffffffffffffffffffffffffffffffff16815260200191505060405180910390f35b60008060008373ffffffffffffffffffffffffffffffffffffffff1673ffffffffffffffffffffffffffffffffffffffff16815260200190815260200160002060009054906101000a900473ffffffffffffffffffffffffffffffffffffffff169050919050565b6060600180548060200260200160405190810160405280929190818152602001828054801561033857602002820191906000526020600020905b8160009054906101000a900473ffffffffffffffffffffffffffffffffffffffff1673ffffffffffffffffffffffffffffffffffffffff16815260200190600101908083116102ee575b5050505050905090565b6000803373ffffffffffffffffffffffffffffffffffffffff1673ffffffffffffffffffffffffffffffffffffffff16815260200190815260200160002060006101000a81549073ffffffffffffffffffffffffffffffffffffffff0219169055565b60008073ffffffffffffffffffffffffffffffffffffffff166000808473ffffffffffffffffffffffffffffffffffffffff1673ffffffffffffffffffffffffffffffffffffffff16815260200190815260200160002060009054906101000a900473ffffffffffffffffffffffffffffffffffffffff1673ffffffffffffffffffffffffffffffffffffffff1614159050919050565b60008060003373ffffffffffffffffffffffffffffffffffffffff1673ffffffffffffffffffffffffffffffffffffffff16815260200190815260200160002060009054906101000a900473ffffffffffffffffffffffffffffffffffffffff1673ffffffffffffffffffffffffffffffffffffffff1614156105f857336104c2610660565b808273ffffffffffffffffffffffffffffffffffffffff1673ffffffffffffffffffffffffffffffffffffffff168152602001915050604051809103906000f080158015610514573d6000803e3d6000fd5b506000803373ffffffffffffffffffffffffffffffffffffffff1673ffffffffffffffffffffffffffffffffffffffff16815260200190815260200160002060006101000a81548173ffffffffffffffffffffffffffffffffffffffff021916908373ffffffffffffffffffffffffffffffffffffffff16021790555060013390806001815401808255809150509060018203906000526020600020016000909192909190916101000a81548173ffffffffffffffffffffffffffffffffffffffff021916908373ffffffffffffffffffffffffffffffffffffffff160217905550505b565b60008060003373ffffffffffffffffffffffffffffffffffffffff1673ffffffffffffffffffffffffffffffffffffffff16815260200190815260200160002060009054906101000a900473ffffffffffffffffffffffffffffffffffffffff16905090565b6040516116b280610671833901905600608060405234801561001057600080fd5b506040516020806116b2833981018060405261002f9190810190610089565b806000806101000a81548173ffffffffffffffffffffffffffffffffffffffff021916908373ffffffffffffffffffffffffffffffffffffffff160217905550506100d2565b600061008182516100b2565b905092915050565b60006020828403121561009b57600080fd5b60006100a984828501610075565b91505092915050565b600073ffffffffffffffffffffffffffffffffffffffff82169050919050565b6115d1806100e16000396000f3006080604052600436106100d0576000357c0100000000000000000000000000000000000000000000000000000000900463ffffffff1680630ae50a39146100d5578063144acd9714610100578063281f46f7146101405780633d1346ad1461017d5780634bfeae17146101a657806362267acf146101e357806376dce1e11461022257806383054b6a1461024b57806388187b9f1461027657806398685929146102a15780639f59fc5a146102e1578063b04a16801461030c578063b4a99a4e1461034b578063e305e95814610376575b600080fd5b3480156100e157600080fd5b506100ea6103b3565b6040516100f791906113af565b60405180910390f35b34801561010c57600080fd5b5061012760048036036101229190810190611251565b6103dc565b604051610137949392919061142a565b60405180910390f35b34801561014c57600080fd5b506101676004803603610162919081019061114d565b610448565b6040516101749190611491565b60405180910390f35b34801561018957600080fd5b506101a4600480360361019f91908101906111c5565b610519565b005b3480156101b257600080fd5b506101cd60048036036101c89190810190611111565b610604565b6040516101da9190611491565b60405180910390f35b3480156101ef57600080fd5b5061020a60048036036102059190810190611251565b6108ac565b604051610219939291906113f3565b60405180910390f35b34801561022e57600080fd5b5061024960048036036102449190810190611189565b610925565b005b34801561025757600080fd5b50610260610bcf565b60405161026d91906114ac565b60405180910390f35b34801561028257600080fd5b5061028b610bdc565b60405161029891906114ac565b60405180910390f35b3480156102ad57600080fd5b506102c860048036036102c39190810190611251565b610be9565b6040516102d8949392919061142a565b60405180910390f35b3480156102ed57600080fd5b506102f6610c61565b604051610303919061146f565b60405180910390f35b34801561031857600080fd5b50610333600480360361032e9190810190611251565b610d77565b604051610342939291906113f3565b60405180910390f35b34801561035757600080fd5b50610360610e82565b60405161036d91906113af565b60405180910390f35b34801561038257600080fd5b5061039d60048036036103989190810190611251565b610ea7565b6040516103aa9190611491565b60405180910390f35b60008060009054906101000a900473ffffffffffffffffffffffffffffffffffffffff16905090565b6002818154811015156103eb57fe5b90600052602060002090600402016000915090508060000160009054906101000a900473ffffffffffffffffffffffffffffffffffffffff16908060010154908060020154908060030160009054906101000a900460ff16905084565b6000806000806000809054906101000a900473ffffffffffffffffffffffffffffffffffffffff1673ffffffffffffffffffffffffffffffffffffffff168673ffffffffffffffffffffffffffffffffffffffff1614156104ac5760019350610510565b60018560200151179250600091505b60018054905082101561050b576001828154811015156104d757fe5b90600052602060002090600302016001015490508281841614156104fe5760019350610510565b81806001019250506104bb565b600093505b50505092915050565b60026080604051908101604052808673ffffffffffffffffffffffffffffffffffffffff1681526020018581526020018381526020018415158152509080600181540180825580915050906001820390600052602060002090600402016000909192909190915060008201518160000160006101000a81548173ffffffffffffffffffffffffffffffffffffffff021916908373ffffffffffffffffffffffffffffffffffffffff160217905550602082015181600101556040820151816002015560608201518160030160006101000a81548160ff02191690831515021790555050505050505050565b6000806000806000806000809054906101000a900473ffffffffffffffffffffffffffffffffffffffff1673ffffffffffffffffffffffffffffffffffffffff168873ffffffffffffffffffffffffffffffffffffffff16141561066b57600195506108a1565b600094505b60018054905085101561089c5760018581548110151561068c57fe5b906000526020600020906003020160000160009054906101000a900473ffffffffffffffffffffffffffffffffffffffff1673ffffffffffffffffffffffffffffffffffffffff168873ffffffffffffffffffffffffffffffffffffffff161415156106f75761088f565b60018581548110151561070657fe5b9060005260206000209060030201600101549350600092505b8673ffffffffffffffffffffffffffffffffffffffff16637028b3b96040518163ffffffff167c0100000000000000000000000000000000000000000000000000000000028152600401602060405180830381600087803b15801561078357600080fd5b505af1158015610797573d6000803e3d6000fd5b505050506040513d601f19601f820116820180604052506107bb919081019061127a565b83101561088e578673ffffffffffffffffffffffffffffffffffffffff1663c70a9246846040518263ffffffff167c010000000000000000000000000000000000000000000000000000000002815260040161081791906114ac565b602060405180830381600087803b15801561083157600080fd5b505af1158015610845573d6000803e3d6000fd5b505050506040513d601f19601f82011682018060405250610869919081019061127a565b915081841690508181141561088157600195506108a1565b828060010193505061071f565b5b8480600101955050610670565b600095505b505050505092915050565b6001818154811015156108bb57fe5b90600052602060002090600302016000915090508060000160009054906101000a900473ffffffffffffffffffffffffffffffffffffffff16908060010154908060020160009054906101000a900473ffffffffffffffffffffffffffffffffffffffff16905083565b600061092f610feb565b60008092506060604051908101604052808673ffffffffffffffffffffffffffffffffffffffff168152602001858152602001600073ffffffffffffffffffffffffffffffffffffffff1681525091503073ffffffffffffffffffffffffffffffffffffffff1663281f46f733846040518363ffffffff167c01000000000000000000000000000000000000000000000000000000000281526004016109d69291906113ca565b602060405180830381600087803b1580156109f057600080fd5b505af1158015610a04573d6000803e3d6000fd5b505050506040513d601f19601f82011682018060405250610a289190810190611228565b15610bc857600090505b600180549050811015610af657816000015173ffffffffffffffffffffffffffffffffffffffff16600182815481101515610a6957fe5b906000526020600020906003020160000160009054906101000a900473ffffffffffffffffffffffffffffffffffffffff1673ffffffffffffffffffffffffffffffffffffffff161415610ae9578160200151600182815481101515610acb57fe5b90600052602060002090600302016001018190555060019250610af6565b8080600101915050610a32565b821515610bc7576001829080600181540180825580915050906001820390600052602060002090600302016000909192909190915060008201518160000160006101000a81548173ffffffffffffffffffffffffffffffffffffffff021916908373ffffffffffffffffffffffffffffffffffffffff1602179055506020820151816001015560408201518160020160006101000a81548173ffffffffffffffffffffffffffffffffffffffff021916908373ffffffffffffffffffffffffffffffffffffffff1602179055505050505b5b5050505050565b6000600180549050905090565b6000600280549050905090565b6000806000806000600286815481101515610c0057fe5b906000526020600020906004020190508060000160009054906101000a900473ffffffffffffffffffffffffffffffffffffffff16816001015482600201548360030160009054906101000a900460ff169450945094509450509193509193565b60606001805480602002602001604051908101604052809291908181526020016000905b82821015610d6e5783829060005260206000209060030201606060405190810160405290816000820160009054906101000a900473ffffffffffffffffffffffffffffffffffffffff1673ffffffffffffffffffffffffffffffffffffffff1673ffffffffffffffffffffffffffffffffffffffff168152602001600182015481526020016002820160009054906101000a900473ffffffffffffffffffffffffffffffffffffffff1673ffffffffffffffffffffffffffffffffffffffff1673ffffffffffffffffffffffffffffffffffffffff168152505081526020019060010190610c85565b50505050905090565b6000806000610d84610feb565b600185815481101515610d9357fe5b9060005260206000209060030201606060405190810160405290816000820160009054906101000a900473ffffffffffffffffffffffffffffffffffffffff1673ffffffffffffffffffffffffffffffffffffffff1673ffffffffffffffffffffffffffffffffffffffff168152602001600182015481526020016002820160009054906101000a900473ffffffffffffffffffffffffffffffffffffffff1673ffffffffffffffffffffffffffffffffffffffff1673ffffffffffffffffffffffffffffffffffffffff16815250509050806000015181602001518260400151935093509350509193909250565b6000809054906101000a900473ffffffffffffffffffffffffffffffffffffffff1681565b6000806000806000809054906101000a900473ffffffffffffffffffffffffffffffffffffffff1673ffffffffffffffffffffffffffffffffffffffff163373ffffffffffffffffffffffffffffffffffffffff161415610f0b5760019350610fe3565b600092505b600180549050831015610fde57600183815481101515610f2c57fe5b906000526020600020906003020160000160009054906101000a900473ffffffffffffffffffffffffffffffffffffffff1673ffffffffffffffffffffffffffffffffffffffff163373ffffffffffffffffffffffffffffffffffffffff16141515610f9757610fd1565b600183815481101515610fa657fe5b9060005260206000209060030201600101549150848216905084811415610fd05760019350610fe3565b5b8280600101935050610f10565b600093505b505050919050565b606060405190810160405280600073ffffffffffffffffffffffffffffffffffffffff16815260200160008152602001600073ffffffffffffffffffffffffffffffffffffffff1681525090565b6000611045823561154f565b905092915050565b6000611059823561156f565b905092915050565b600061106d825161156f565b905092915050565b6000611081823561157b565b905092915050565b60006060828403121561109b57600080fd5b6110a560606114c7565b905060006110b584828501611039565b60008301525060206110c9848285016110e9565b60208301525060406110dd84828501611039565b60408301525092915050565b60006110f5823561158d565b905092915050565b6000611109825161158d565b905092915050565b6000806040838503121561112457600080fd5b600061113285828601611039565b925050602061114385828601611075565b9150509250929050565b6000806080838503121561116057600080fd5b600061116e85828601611039565b925050602061117f85828601611089565b9150509250929050565b6000806040838503121561119c57600080fd5b60006111aa85828601611039565b92505060206111bb858286016110e9565b9150509250929050565b600080600080608085870312156111db57600080fd5b60006111e987828801611039565b94505060206111fa878288016110e9565b935050604061120b8782880161104d565b925050606061121c878288016110e9565b91505092959194509250565b60006020828403121561123a57600080fd5b600061124884828501611061565b91505092915050565b60006020828403121561126357600080fd5b6000611271848285016110e9565b91505092915050565b60006020828403121561128c57600080fd5b600061129a848285016110fd565b91505092915050565b6112ac81611519565b82525050565b60006112bd82611501565b8084526020840193506112cf836114f4565b60005b82811015611301576112e586835161135e565b6112ee8261150c565b91506060860195506001810190506112d2565b50849250505092915050565b61131681611539565b82525050565b60608201600082015161133260008501826112a3565b50602082015161134560208501826113a0565b50604082015161135860408501826112a3565b50505050565b60608201600082015161137460008501826112a3565b50602082015161138760208501826113a0565b50604082015161139a60408501826112a3565b50505050565b6113a981611545565b82525050565b60006020820190506113c460008301846112a3565b92915050565b60006080820190506113df60008301856112a3565b6113ec602083018461131c565b9392505050565b600060608201905061140860008301866112a3565b61141560208301856113a0565b61142260408301846112a3565b949350505050565b600060808201905061143f60008301876112a3565b61144c60208301866113a0565b61145960408301856113a0565b611466606083018461130d565b95945050505050565b6000602082019050818103600083015261148981846112b2565b905092915050565b60006020820190506114a6600083018461130d565b92915050565b60006020820190506114c160008301846113a0565b92915050565b6000604051905081810181811067ffffffffffffffff821117156114ea57600080fd5b8060405250919050565b6000602082019050919050565b600081519050919050565b6000602082019050919050565b600073ffffffffffffffffffffffffffffffffffffffff82169050919050565b60008115159050919050565b6000819050919050565b600073ffffffffffffffffffffffffffffffffffffffff82169050919050565b60008115159050919050565b600061158682611519565b9050919050565b60008190509190505600a265627a7a72305820b7a21d747575fd4877f7565e6bb6fda012e32d63fb5207f0cdc5db0987d102476c6578706572696d656e74616cf50037a165627a7a72305820cb741dd5bdf448b39a37f9c09c46cdfd15a9e9486e9d191d5f2785b255b74e1e0029",
  "source": "pragma solidity ^0.4.4;\r\n\r\nimport \"./Patient.sol\";\r\n\r\ncontract PatientFactory {\r\n\r\n  // Maps accounts to its respective Patient instance\r\n    mapping(address => Patient) mMap;\r\n\r\n    address[] patientAddress;\r\n\r\n  constructor () public {\r\n  }\r\n\r\n    function MakePatient() {\r\n        if (address(mMap[msg.sender]) == 0) {\r\n            mMap[msg.sender] = new Patient(msg.sender);\r\n            patientAddress.push(msg.sender);\r\n        }\r\n    }\r\n\r\n  function DeletePatient() {\r\n    delete mMap[msg.sender];\r\n  }\r\n\r\n  // Gets the address of the Patient instance associated with the caller\r\n  function GetPatient() constant returns (Patient) {\r\n    return mMap[msg.sender];\r\n  }\r\n\r\n  function IsPatient(address who) constant returns (bool) {\r\n    return mMap[who] != address(0);\r\n  }\r\n\r\n  function GetPatientFromAddress(address who) constant returns (Patient) {\r\n    return mMap[who];\r\n  }\r\n\r\n    function GetPatientList() view public returns (address[]) {\r\n        return patientAddress;\r\n    }\r\n\r\n}\r\n",
  "sourcePath": "C:\\Users\\Mahesh\\Projects\\ConsentDirectivesAudit\\contracts\\PatientFactory.sol",
  "compiler": {
    "name": "solc",
    "version": "0.4.23+commit.124ca40d.Emscripten.clang"
  },
  "schemaVersion": "2.0.0",
  "updatedAt": "2018-06-19T04:40:32.893Z"
}