{
  "contractName": "PatientFactory",
  "abi": [
    {
      "inputs": [],
      "payable": false,
      "stateMutability": "nonpayable",
      "type": "constructor"
    },
    {
      "constant": false,
      "inputs": [
        {
          "name": "name",
          "type": "string"
        },
        {
          "name": "mcp",
          "type": "uint64"
        }
      ],
      "name": "MakePatient",
      "outputs": [],
      "payable": false,
      "stateMutability": "nonpayable",
      "type": "function"
    },
    {
      "constant": false,
      "inputs": [],
      "name": "DeletePatient",
      "outputs": [],
      "payable": false,
      "stateMutability": "nonpayable",
      "type": "function"
    },
    {
      "constant": true,
      "inputs": [],
      "name": "GetPatient",
      "outputs": [
        {
          "name": "",
          "type": "address"
        }
      ],
      "payable": false,
      "stateMutability": "view",
      "type": "function"
    },
    {
      "constant": true,
      "inputs": [
        {
          "name": "who",
          "type": "address"
        }
      ],
      "name": "IsPatient",
      "outputs": [
        {
          "name": "",
          "type": "bool"
        }
      ],
      "payable": false,
      "stateMutability": "view",
      "type": "function"
    },
    {
      "constant": true,
      "inputs": [
        {
          "name": "who",
          "type": "address"
        }
      ],
      "name": "GetPatientFromAddress",
      "outputs": [
        {
          "name": "",
          "type": "address"
        }
      ],
      "payable": false,
      "stateMutability": "view",
      "type": "function"
    },
    {
      "constant": true,
      "inputs": [],
      "name": "GetPatientList",
      "outputs": [
        {
          "name": "",
          "type": "address[]"
        }
      ],
      "payable": false,
      "stateMutability": "view",
      "type": "function"
    }
  ],
  "bytecode": "0x608060405234801561001057600080fd5b50612076806100206000396000f300608060405260043610610078576000357c0100000000000000000000000000000000000000000000000000000000900463ffffffff1680631af88bc11461007d57806355fcdfb314610100578063752b016d1461016c578063a671698b14610183578063cc10d53d14610200578063ff2311a41461025b575b600080fd5b34801561008957600080fd5b506100be600480360381019080803573ffffffffffffffffffffffffffffffffffffffff1690602001909291905050506102b2565b604051808273ffffffffffffffffffffffffffffffffffffffff1673ffffffffffffffffffffffffffffffffffffffff16815260200191505060405180910390f35b34801561010c57600080fd5b5061011561031a565b6040518080602001828103825283818151815260200191508051906020019060200280838360005b8381101561015857808201518184015260208101905061013d565b505050509050019250505060405180910390f35b34801561017857600080fd5b506101816103a8565b005b34801561018f57600080fd5b506101fe600480360381019080803590602001908201803590602001908080601f0160208091040260200160405190810160405280939291908181526020018383808284378201915050505050509192919290803567ffffffffffffffff16906020019092919050505061040b565b005b34801561020c57600080fd5b50610241600480360381019080803573ffffffffffffffffffffffffffffffffffffffff169060200190929190505050610654565b604051808215151515815260200191505060405180910390f35b34801561026757600080fd5b506102706106eb565b604051808273ffffffffffffffffffffffffffffffffffffffff1673ffffffffffffffffffffffffffffffffffffffff16815260200191505060405180910390f35b60008060008373ffffffffffffffffffffffffffffffffffffffff1673ffffffffffffffffffffffffffffffffffffffff16815260200190815260200160002060009054906101000a900473ffffffffffffffffffffffffffffffffffffffff169050919050565b6060600180548060200260200160405190810160405280929190818152602001828054801561039e57602002820191906000526020600020905b8160009054906101000a900473ffffffffffffffffffffffffffffffffffffffff1673ffffffffffffffffffffffffffffffffffffffff1681526020019060010190808311610354575b5050505050905090565b6000803373ffffffffffffffffffffffffffffffffffffffff1673ffffffffffffffffffffffffffffffffffffffff16815260200190815260200160002060006101000a81549073ffffffffffffffffffffffffffffffffffffffff0219169055565b60008060003373ffffffffffffffffffffffffffffffffffffffff1673ffffffffffffffffffffffffffffffffffffffff16815260200190815260200160002060009054906101000a900473ffffffffffffffffffffffffffffffffffffffff1673ffffffffffffffffffffffffffffffffffffffff16141561065057338282610493610751565b808473ffffffffffffffffffffffffffffffffffffffff1673ffffffffffffffffffffffffffffffffffffffff168152602001806020018367ffffffffffffffff1667ffffffffffffffff168152602001828103825284818151815260200191508051906020019080838360005b8381101561051c578082015181840152602081019050610501565b50505050905090810190601f1680156105495780820380516001836020036101000a031916815260200191505b50945050505050604051809103906000f08015801561056c573d6000803e3d6000fd5b506000803373ffffffffffffffffffffffffffffffffffffffff1673ffffffffffffffffffffffffffffffffffffffff16815260200190815260200160002060006101000a81548173ffffffffffffffffffffffffffffffffffffffff021916908373ffffffffffffffffffffffffffffffffffffffff16021790555060013390806001815401808255809150509060018203906000526020600020016000909192909190916101000a81548173ffffffffffffffffffffffffffffffffffffffff021916908373ffffffffffffffffffffffffffffffffffffffff160217905550505b5050565b60008073ffffffffffffffffffffffffffffffffffffffff166000808473ffffffffffffffffffffffffffffffffffffffff1673ffffffffffffffffffffffffffffffffffffffff16815260200190815260200160002060009054906101000a900473ffffffffffffffffffffffffffffffffffffffff1673ffffffffffffffffffffffffffffffffffffffff1614159050919050565b60008060003373ffffffffffffffffffffffffffffffffffffffff1673ffffffffffffffffffffffffffffffffffffffff16815260200190815260200160002060009054906101000a900473ffffffffffffffffffffffffffffffffffffffff16905090565b6040516118e98061076283390190560060806040523480156200001157600080fd5b50604051620018e9380380620018e98339810180604052620000379190810190620001fb565b826000806101000a81548173ffffffffffffffffffffffffffffffffffffffff021916908373ffffffffffffffffffffffffffffffffffffffff16021790555081600190805190602001906200008f929190620000c2565b5080600260006101000a81548167ffffffffffffffff021916908367ffffffffffffffff1602179055505050506200032f565b828054600181600116156101000203166002900490600052602060002090601f016020900481019282601f106200010557805160ff191683800117855562000136565b8280016001018555821562000136579182015b828111156200013557825182559160200191906001019062000118565b5b50905062000145919062000149565b5090565b6200016e91905b808211156200016a57600081600090555060010162000150565b5090565b90565b60006200017f8251620002c5565b905092915050565b600082601f83011215156200019b57600080fd5b8151620001b2620001ac8262000298565b6200026a565b91508082526020830160208301858383011115620001cf57600080fd5b620001dc838284620002f9565b50505092915050565b6000620001f38251620002e5565b905092915050565b6000806000606084860312156200021157600080fd5b6000620002218682870162000171565b935050602084015167ffffffffffffffff8111156200023f57600080fd5b6200024d8682870162000187565b92505060406200026086828701620001e5565b9150509250925092565b6000604051905081810181811067ffffffffffffffff821117156200028e57600080fd5b8060405250919050565b600067ffffffffffffffff821115620002b057600080fd5b601f19601f8301169050602081019050919050565b600073ffffffffffffffffffffffffffffffffffffffff82169050919050565b600067ffffffffffffffff82169050919050565b60005b8381101562000319578082015181840152602081019050620002fc565b8381111562000329576000848401525b50505050565b6115aa806200033f6000396000f3006080604052600436106100db576000357c0100000000000000000000000000000000000000000000000000000000900463ffffffff1680630ae50a39146100e0578063144acd971461010b578063281f46f71461014b5780633d1346ad146101885780634bfeae17146101b157806362267acf146101ee57806376dce1e11461022d5780638052474d1461025657806383054b6a1461028157806388187b9f146102ac57806398685929146102d7578063b04a168014610317578063b4a99a4e14610356578063e305e95814610381578063eabb16f4146103be575b600080fd5b3480156100ec57600080fd5b506100f56103e9565b604051610102919061132f565b60405180910390f35b34801561011757600080fd5b50610132600480360361012d9190810190611229565b610412565b60405161014294939291906113aa565b60405180910390f35b34801561015757600080fd5b50610172600480360361016d9190810190611125565b61047e565b60405161017f91906113ef565b60405180910390f35b34801561019457600080fd5b506101af60048036036101aa919081019061119d565b61054f565b005b3480156101bd57600080fd5b506101d860048036036101d391908101906110e9565b61063a565b6040516101e591906113ef565b60405180910390f35b3480156101fa57600080fd5b5061021560048036036102109190810190611229565b6108e2565b60405161022493929190611373565b60405180910390f35b34801561023957600080fd5b50610254600480360361024f9190810190611161565b61095b565b005b34801561026257600080fd5b5061026b610c05565b604051610278919061140a565b60405180910390f35b34801561028d57600080fd5b50610296610ca3565b6040516102a3919061142c565b60405180910390f35b3480156102b857600080fd5b506102c1610cb0565b6040516102ce919061142c565b60405180910390f35b3480156102e357600080fd5b506102fe60048036036102f99190810190611229565b610cbd565b60405161030e94939291906113aa565b60405180910390f35b34801561032357600080fd5b5061033e60048036036103399190810190611229565b610d35565b60405161034d93929190611373565b60405180910390f35b34801561036257600080fd5b5061036b610e40565b604051610378919061132f565b60405180910390f35b34801561038d57600080fd5b506103a860048036036103a39190810190611229565b610e65565b6040516103b591906113ef565b60405180910390f35b3480156103ca57600080fd5b506103d3610fa9565b6040516103e09190611447565b60405180910390f35b60008060009054906101000a900473ffffffffffffffffffffffffffffffffffffffff16905090565b60048181548110151561042157fe5b90600052602060002090600402016000915090508060000160009054906101000a900473ffffffffffffffffffffffffffffffffffffffff16908060010154908060020154908060030160009054906101000a900460ff16905084565b6000806000806000809054906101000a900473ffffffffffffffffffffffffffffffffffffffff1673ffffffffffffffffffffffffffffffffffffffff168673ffffffffffffffffffffffffffffffffffffffff1614156104e25760019350610546565b60018560200151179250600091505b6003805490508210156105415760038281548110151561050d57fe5b90600052602060002090600302016001015490508281841614156105345760019350610546565b81806001019250506104f1565b600093505b50505092915050565b60046080604051908101604052808673ffffffffffffffffffffffffffffffffffffffff1681526020018581526020018381526020018415158152509080600181540180825580915050906001820390600052602060002090600402016000909192909190915060008201518160000160006101000a81548173ffffffffffffffffffffffffffffffffffffffff021916908373ffffffffffffffffffffffffffffffffffffffff160217905550602082015181600101556040820151816002015560608201518160030160006101000a81548160ff02191690831515021790555050505050505050565b6000806000806000806000809054906101000a900473ffffffffffffffffffffffffffffffffffffffff1673ffffffffffffffffffffffffffffffffffffffff168873ffffffffffffffffffffffffffffffffffffffff1614156106a157600195506108d7565b600094505b6003805490508510156108d2576003858154811015156106c257fe5b906000526020600020906003020160000160009054906101000a900473ffffffffffffffffffffffffffffffffffffffff1673ffffffffffffffffffffffffffffffffffffffff168873ffffffffffffffffffffffffffffffffffffffff1614151561072d576108c5565b60038581548110151561073c57fe5b9060005260206000209060030201600101549350600092505b8673ffffffffffffffffffffffffffffffffffffffff16637028b3b96040518163ffffffff167c0100000000000000000000000000000000000000000000000000000000028152600401602060405180830381600087803b1580156107b957600080fd5b505af11580156107cd573d6000803e3d6000fd5b505050506040513d601f19601f820116820180604052506107f19190810190611252565b8310156108c4578673ffffffffffffffffffffffffffffffffffffffff1663c70a9246846040518263ffffffff167c010000000000000000000000000000000000000000000000000000000002815260040161084d919061142c565b602060405180830381600087803b15801561086757600080fd5b505af115801561087b573d6000803e3d6000fd5b505050506040513d601f19601f8201168201806040525061089f9190810190611252565b91508184169050818114156108b757600195506108d7565b8280600101935050610755565b5b84806001019550506106a6565b600095505b505050505092915050565b6003818154811015156108f157fe5b90600052602060002090600302016000915090508060000160009054906101000a900473ffffffffffffffffffffffffffffffffffffffff16908060010154908060020160009054906101000a900473ffffffffffffffffffffffffffffffffffffffff16905083565b6000610965610fc3565b60008092506060604051908101604052808673ffffffffffffffffffffffffffffffffffffffff168152602001858152602001600073ffffffffffffffffffffffffffffffffffffffff1681525091503073ffffffffffffffffffffffffffffffffffffffff1663281f46f733846040518363ffffffff167c0100000000000000000000000000000000000000000000000000000000028152600401610a0c92919061134a565b602060405180830381600087803b158015610a2657600080fd5b505af1158015610a3a573d6000803e3d6000fd5b505050506040513d601f19601f82011682018060405250610a5e9190810190611200565b15610bfe57600090505b600380549050811015610b2c57816000015173ffffffffffffffffffffffffffffffffffffffff16600382815481101515610a9f57fe5b906000526020600020906003020160000160009054906101000a900473ffffffffffffffffffffffffffffffffffffffff1673ffffffffffffffffffffffffffffffffffffffff161415610b1f578160200151600382815481101515610b0157fe5b90600052602060002090600302016001018190555060019250610b2c565b8080600101915050610a68565b821515610bfd576003829080600181540180825580915050906001820390600052602060002090600302016000909192909190915060008201518160000160006101000a81548173ffffffffffffffffffffffffffffffffffffffff021916908373ffffffffffffffffffffffffffffffffffffffff1602179055506020820151816001015560408201518160020160006101000a81548173ffffffffffffffffffffffffffffffffffffffff021916908373ffffffffffffffffffffffffffffffffffffffff1602179055505050505b5b5050505050565b60018054600181600116156101000203166002900480601f016020809104026020016040519081016040528092919081815260200182805460018160011615610100020316600290048015610c9b5780601f10610c7057610100808354040283529160200191610c9b565b820191906000526020600020905b815481529060010190602001808311610c7e57829003601f168201915b505050505081565b6000600380549050905090565b6000600480549050905090565b6000806000806000600486815481101515610cd457fe5b906000526020600020906004020190508060000160009054906101000a900473ffffffffffffffffffffffffffffffffffffffff16816001015482600201548360030160009054906101000a900460ff169450945094509450509193509193565b6000806000610d42610fc3565b600385815481101515610d5157fe5b9060005260206000209060030201606060405190810160405290816000820160009054906101000a900473ffffffffffffffffffffffffffffffffffffffff1673ffffffffffffffffffffffffffffffffffffffff1673ffffffffffffffffffffffffffffffffffffffff168152602001600182015481526020016002820160009054906101000a900473ffffffffffffffffffffffffffffffffffffffff1673ffffffffffffffffffffffffffffffffffffffff1673ffffffffffffffffffffffffffffffffffffffff16815250509050806000015181602001518260400151935093509350509193909250565b6000809054906101000a900473ffffffffffffffffffffffffffffffffffffffff1681565b6000806000806000809054906101000a900473ffffffffffffffffffffffffffffffffffffffff1673ffffffffffffffffffffffffffffffffffffffff163373ffffffffffffffffffffffffffffffffffffffff161415610ec95760019350610fa1565b600092505b600380549050831015610f9c57600383815481101515610eea57fe5b906000526020600020906003020160000160009054906101000a900473ffffffffffffffffffffffffffffffffffffffff1673ffffffffffffffffffffffffffffffffffffffff163373ffffffffffffffffffffffffffffffffffffffff16141515610f5557610f8f565b600383815481101515610f6457fe5b9060005260206000209060030201600101549150848216905084811415610f8e5760019350610fa1565b5b8280600101935050610ece565b600093505b505050919050565b600260009054906101000a900467ffffffffffffffff1681565b606060405190810160405280600073ffffffffffffffffffffffffffffffffffffffff16815260200160008152602001600073ffffffffffffffffffffffffffffffffffffffff1681525090565b600061101d82356114e4565b905092915050565b60006110318235611504565b905092915050565b60006110458251611504565b905092915050565b60006110598235611510565b905092915050565b60006060828403121561107357600080fd5b61107d6060611462565b9050600061108d84828501611011565b60008301525060206110a1848285016110c1565b60208301525060406110b584828501611011565b60408301525092915050565b60006110cd8235611522565b905092915050565b60006110e18251611522565b905092915050565b600080604083850312156110fc57600080fd5b600061110a85828601611011565b925050602061111b8582860161104d565b9150509250929050565b6000806080838503121561113857600080fd5b600061114685828601611011565b925050602061115785828601611061565b9150509250929050565b6000806040838503121561117457600080fd5b600061118285828601611011565b9250506020611193858286016110c1565b9150509250929050565b600080600080608085870312156111b357600080fd5b60006111c187828801611011565b94505060206111d2878288016110c1565b93505060406111e387828801611025565b92505060606111f4878288016110c1565b91505092959194509250565b60006020828403121561121257600080fd5b600061122084828501611039565b91505092915050565b60006020828403121561123b57600080fd5b6000611249848285016110c1565b91505092915050565b60006020828403121561126457600080fd5b6000611272848285016110d5565b91505092915050565b6112848161149a565b82525050565b611293816114ba565b82525050565b60006112a48261148f565b8084526112b881602086016020860161152c565b6112c18161155f565b602085010191505092915050565b6060820160008201516112e5600085018261127b565b5060208201516112f86020850182611311565b50604082015161130b604085018261127b565b50505050565b61131a816114c6565b82525050565b611329816114d0565b82525050565b6000602082019050611344600083018461127b565b92915050565b600060808201905061135f600083018561127b565b61136c60208301846112cf565b9392505050565b6000606082019050611388600083018661127b565b6113956020830185611311565b6113a2604083018461127b565b949350505050565b60006080820190506113bf600083018761127b565b6113cc6020830186611311565b6113d96040830185611311565b6113e6606083018461128a565b95945050505050565b6000602082019050611404600083018461128a565b92915050565b600060208201905081810360008301526114248184611299565b905092915050565b60006020820190506114416000830184611311565b92915050565b600060208201905061145c6000830184611320565b92915050565b6000604051905081810181811067ffffffffffffffff8211171561148557600080fd5b8060405250919050565b600081519050919050565b600073ffffffffffffffffffffffffffffffffffffffff82169050919050565b60008115159050919050565b6000819050919050565b600067ffffffffffffffff82169050919050565b600073ffffffffffffffffffffffffffffffffffffffff82169050919050565b60008115159050919050565b600061151b8261149a565b9050919050565b6000819050919050565b60005b8381101561154a57808201518184015260208101905061152f565b83811115611559576000848401525b50505050565b6000601f19601f83011690509190505600a265627a7a723058205a26ed2d60a77bf66a6a69e05802c11d549073d81b2d3dd0551929a31c4bd5ad6c6578706572696d656e74616cf50037a165627a7a72305820b7020a3641c569664c99d76bc95ff3f98d13deac7215583bdef0e527f8ffa4b10029",
  "source": "pragma solidity ^0.4.4;\r\n\r\nimport \"./Patient.sol\";\r\n\r\ncontract PatientFactory {\r\n\r\n  // Maps accounts to its respective Patient instance\r\n    mapping(address => Patient) mMap;\r\n\r\n    address[] patientAddress;\r\n\r\n  constructor () public {\r\n  }\r\n\r\n    function MakePatient(string name, uint64 mcp) {\r\n        if (address(mMap[msg.sender]) == 0) {\r\n            mMap[msg.sender] = new Patient(msg.sender, name, mcp);\r\n            patientAddress.push(msg.sender);\r\n        }\r\n    }\r\n\r\n  function DeletePatient() {\r\n    delete mMap[msg.sender];\r\n  }\r\n\r\n  // Gets the address of the Patient instance associated with the caller\r\n  function GetPatient() constant returns (Patient) {\r\n    return mMap[msg.sender];\r\n  }\r\n\r\n  function IsPatient(address who) constant returns (bool) {\r\n    return mMap[who] != address(0);\r\n  }\r\n\r\n  function GetPatientFromAddress(address who) constant returns (Patient) {\r\n    return mMap[who];\r\n  }\r\n\r\n    function GetPatientList() view public returns (address[]) {\r\n        return patientAddress;\r\n    }\r\n\r\n}\r\n",
  "sourcePath": "E:\\MUN courses study materials\\Masters Project\\ConsentDirectivesAudit\\contracts\\PatientFactory.sol",
  "compiler": {
    "name": "solc",
    "version": "0.4.24+commit.e67f0147.Emscripten.clang"
  },
  "schemaVersion": "2.0.0",
  "updatedAt": "2018-06-22T00:14:27.399Z"
}